:0300000002000EED
:0C000E00787FE4F6D8FD758108020055EB
:0300E10001080013
:0F00D200E5A0541F44A0F5A0E4F58053A01F2221
:1000C200438901758CFF758AF5D2A9D2AFD28C22F1
:03000B0002009A56
:10009A00C0E0C0D0758CFF758AF50508E508C394E1
:1000AA00644003750800E508D3941E5004D2B48056
:0800BA0002C2B4D0D0D0E03244
:080003001200D21200C280FEBF
:10001A00020003E493A3F8E493A34003F68001F2F9
:10002A0008DFF48029E493A3F85407240CC8C333E7
:10003A00C4540F4420C8834004F456800146F6DFB6
:10004A00E4800B01020408102040809000E1E47E65
:10005A00019360BCA3FF543F30E509541FFEE493AB
:10006A00A360010ECF54C025E060A840B8E493A372
:10007A00FAE493A3F8E493A3C8C582C8CAC583CA9D
:10008A00F0A3C8C582C8CAC583CADFE9DEE780BE55
:0100E400001B
:00000001FF
