:0300000002036494
:0C036400787FE4F6D8FD7581200203AB21
:1005C8003F065B4F666D7D077F6F777C395E79717B
:0105D8000022
:0D05F800080910101010101010100108005C
:10059F00EF1FAA0670011E4A600DE4FDC3ED6480D3
:0705AF00948C50EC0D80F567
:0105B6002222
:10051200C200D2947F0C7E0012059FC2947F507E4F
:100522000012059FD2947F0A7E0012059FA2949228
:08053200007F057E0002059F19
:02055F00A907EA
:10056100E4FBC294E91392947F057E0012059FD2A9
:1005710094E9C313F90BBB08E97F057E0002059FCF
:10058100E4FBC294ECC313FCD29430940343048083
:0D0591007F057E0012059F0BBB08E7AF043D
:01059E00223A
:0F05E900E5A0541F44A0F5A0E4F58053A01F2205
:10047800E5A0541F44E0F5A07580FF53A01FE5A038
:10048800541F44C0F5A0AF087401A807088002C330
:1004980033D8FCF58053A01FE5A0541F44E0F5A015
:1004A80074092508F8E69005C893F4F580E508B4C2
:1004B800050353807F53A01F0508E508B40803E42B
:0304C800F5082212
:0C0606007F1D7E0E7D36DDFEDEFCDFFA7F
:0106120022C5
:1005D900438901758CF8758A2FD2A9D2AFD28C22A2
:03000B0002053AB1
:10053A00C0E0C083C082C0D075D000C000C00775BB
:10054A008CF8758A2F120478D007D000D0D0D082C8
:05055A00D083D0E03267
:1003F0001205127FCC12055F7F4412055F7FC87E15
:100400000012059F1205127FCC12055F7FBE1205F8
:100410005F120581A907120581EF75F040A4FFAEB8
:10042000F0E91313543FFDEF4DFFC3EE6480948059
:10043000500EEF24FFFFEE34FFFEEFF4FFEEF4FE6C
:10044000AD07AC06EC120211E4FBFA7980783E129B
:1004500001068F168E158D148C13E4FFFE7DC87C6B
:1004600042AB16AA15A914A813120106E4FBFAF967
:08047000783F12001502024A58
:1004CB001203F08E118F127B07D3E5129400E51106
:1004DB00648094804023AE11AF127C007D0A12021F
:1004EB00CB74092BF8A605AE11AF127C007D0A1256
:1004FB0002CB8E118F121B80D074092BF876101B38
:06050B00EBD3940050F355
:0105110022C7
:1005B7001205E91205D91204CB12060612060680A7
:0105C700F53E
:10000E000202B6E86480F8E933E83360110460F068
:10001E00ED33EC337009E8FCE9FDEAFEEBFF220458
:10002E0060DED3EB9FEA9EE99DE8C2E78CF0C2F753
:10003E0095F0400CE8CCF8E9CDF9EACEFAEBCFFB1F
:10004E0012028185D0F05804700320D5B3E80470F5
:10005E00075002B2D50202C092D5EC0460F7E4CC90
:10006E00C0E0C398F8603B94186008400DD0E0FBE8
:10007E00020298E4FBFAC9FC8028E830E406E4C9E1
:10008E00FBE4CAFCE830E305E4C9CACBFCE854073C
:10009E006010F8C3E913F9EA13FAEB13FBEC13FC47
:1000AE00D8F130F52FC3E49CFCEF9BFFEE9AFEEDEA
:1000BE0099FDD0E0FBEF4E4D4C701222DB03020295
:1000CE00BDEC2CFCEF33FFEE33FEED33FDED30E7F0
:1000DE00EB020298EF2BFFEE3AFEED39FDD0E0FB7E
:1000EE0050130BBB00030202C0ED13FDEE13FEEF27
:0800FE0013FFEC13FC02029851
:10010600EC4D6011E8497017ED33EC3304600DE4F3
:10011600FCFFFEFD22E933E8330470F80202B61252
:10012600028158046009E4CC248150062850090253
:1001360002C02840030202BDC0E0EB4A7044B98009
:1001460006D0E0FB0202ACEF4E701CBD8008EBFF50
:10015600EAFEE9FD80EBE98DF0A4FEE5F00201EF91
:10016600E9CDF9EAFEEBFFEF89F0A4FCE5F0CE89D4
:10017600F0A42EFFE435F0CD89F0A42DFEE435F091
:100186008067EF4E7005BD80D780C3EF8BF0A4ACBF
:10019600F0EE8BF0A42CFCE435F0F8EF8AF0A42CFA
:1001A600E5F038FCE433CB8DF0A42CFCE5F03BF80D
:1001B600EE8AF0A42CFCE5F038F8E433CF89F0A4FD
:1001C6002CFCE5F038CF3400CE89F0A42FFFE5F003
:1001D6003EFEE433C98DF0A42EFEE5F039CD8AF05B
:1001E600A42FFFE5F03EFEE43DFD33D0E0FB5007D3
:1001F6000BBB000F0202C0EC2CFCEF33FFEE33FE0C
:06020600ED33FD02029839
:10020C0075F020800E75F010800575F0087D007E6D
:10021C00007F003392D530D503120301EC3340102C
:10022C00EF33FFEE33FEED33FDEC33FCD5F0ED2276
:0E023C00E5F0247EA2D513CC92E7CDCEFF22B2
:10024A00EDD2E7CD33EC3392D524814006E4FFFEAC
:10025A00FDFC22FCE4CFCECDCC24E0501174FF800B
:10026A00EDC3CC13CCCD13CDCE13CECF13CF0470A8
:07027A00F030D5DE020301A4
:10028100E9D2E7C933E833F892D5EDD2E7CD33ECC3
:0702910033FC5002B2D5223C
:10029800EC30E7100FBF000C0EBE00080DBD0004C7
:1002A8000BEB6014A2D5EB13FCED92E7FD2274FF73
:1002B800FCFDFEFF22E480F8A2D574FF13FC7D80CC
:0302C800E480EFE0
:100370000205B7E493A3F8E493A34003F68001F2E7
:1003800008DFF48029E493A3F85407240CC8C3338E
:10039000C4540F4420C8834004F456800146F6DF5D
:1003A000E4800B01020408102040809005F8E47EF0
:1003B000019360BCA3FF543F30E509541FFEE49352
:1003C000A360010ECF54C025E060A840B8E493A319
:1003D000FAE493A3F8E493A3C8C582C8CAC583CA44
:1003E000F0A3C8C582C8CAC583CADFE9DEE780BEFC
:0106050000F4
:1002CB00C2D5EC30E709B2D5E4C39DFDE49CFCEE4E
:1002DB0030E715B2D5E4C39FFFE49EFE12030FC3B4
:1002EB00E49DFDE49CFC800312030F30D507C3E4AF
:0602FB009FFFE49EFE22BD
:0E030100C3E49FFFE49EFEE49DFDE49CFC220D
:10030F00BC000BBE0029EF8DF084FFADF022E4CCD2
:10031F00F875F008EF2FFFEE33FEEC33FCEE9DEC9B
:10032F00984005FCEE9DFE0FD5F0E9E4CEFD22EDE1
:10033F00F8F5F0EE8420D21CFEADF075F008EF2F2B
:10034F00FFED33FD4007985006D5F0F222C398FD1C
:05035F000FD5F0EA22B9
:00000001FF
