:0300000002001EDD
:0C001E00787FE4F6D8FD758114020065BF
:0C025900C0F9A4B0999282F88090FFBF19
:10000300080B0A0A0A0A0A0A0A0A01080002090076
:0100130000EC
:0F022D00E5A0541F44A0F5A0E4F58053A01F22C4
:1001A600E5A0541F44E0F5A07580FF53A01FE5A00D
:1001B600541F44C0F5A0AF087401A807088002C305
:1001C60033D8FCF58053A01FE5A0541F44E0F5A0EA
:1001D600740B2508F8E690025993F58053A01F0585
:0A01E60008E508B40803E4F5082258
:10021D00438910758DF8758B2FD2ABD2AFD28E224C
:0F023C00438905E4F58CF58AD2A9D28CD28822A9
:100135007B077A00E50A64F47004E50964017060E0
:10014500F509F50AAF8CEFFEAD8A7C00E42DF514B8
:10015500EC3EF513E4F58CF58AD3E5149400E5132C
:10016500648094804027AE13AF147C007D0A120092
:10017500AA740B2BF8A605AE13AF147C007D0A12EA
:1001850000AA8E138F14EB1B70CF1A80CC740B2B27
:10019500F8760AEB1B70011AC3EA6480948050ED6F
:0101A5002237
:03001B000201F0EF
:1001F000C0E0C083C082C0D075D000C000C0077509
:100200008DF8758B2F1201A6050AE50A7002050903
:0D021000D007D000D0D0D082D083D0E03213
:0E024B0012022D12023C12021D12013580FB20
:10002A0002024BE493A3F8E493A34003F68001F29F
:10003A0008DFF48029E493A3F85407240CC8C333D7
:10004A00C4540F4420C8834004F456800146F6DFA6
:10005A00E4800B0102040810204080900003E47E33
:10006A00019360BCA3FF543F30E509541FFEE4939B
:10007A00A360010ECF54C025E060A840B8E493A362
:10008A00FAE493A3F8E493A3C8C582C8CAC583CA8D
:10009A00F0A3C8C582C8CAC583CADFE9DEE780BE45
:0100140000EB
:1000AA00C2D5EC30E709B2D5E4C39DFDE49CFCEE71
:1000BA0030E715B2D5E4C39FFFE49EFE1200E0C309
:1000CA00E49DFDE49CFC80031200E030D507C3E404
:0600DA009FFFE49EFE22E0
:1000E000BC000BBE0029EF8DF084FFADF022E4CC04
:1000F000F875F008EF2FFFEE33FEEC33FCEE9DECCD
:10010000984005FCEE9DFE0FD5F0E9E4CEFD22ED12
:10011000F8F5F0EE8420D21CFEADF075F008EF2F5C
:10012000FFED33FD4007985006D5F0F222C398FD4D
:050130000FD5F0EA22EA
:00000001FF
