:0300000002000EED
:0C000E00787FE4F6D8FD758115020055DE
:0C02CF00C0F9A4B0999282F88090FFBFA3
:0D02B400080A0A0A0A0A0A0A0A0A010800D2
:0F02A500E5A0541F44A0F5A0E4F58053A01F224C
:10029500438901758CF8758A2FD2A9D2AFD28C22E9
:10009A00E5A0541F44E0F5A07580FF53A01FE5A01A
:1000AA00541F44C0F5A0AF087401A807088002C312
:1000BA0033D8FCF58053A01FE5A0541F44E0F5A0F7
:1000CA00740A2508F8E69002CF93F58053A01F051D
:0A00DA0008E508B40803E4F5082265
:1001F000E4FF1201158F09E50975F00A8475F00A0C
:100200008485F010E50975F00A8485F0110509ADC3
:0602100009E4FF02019F5A
:03000B00020216D8
:10021600C0E0C083C082C0D075D000C000C00775E2
:100226008CF8758A2F12009AD007D000D0D0D082D1
:05023600D083D0E0328E
:0C02C2007F1D7E0E7D36DDFEDEFCDFFAC7
:0102CE00220D
:100284001202A51202951202C21202C21201F080D9
:01029400F574
:10025A00EF1FAA0670011E4A600DE4FDC3ED64801B
:07026A0094EE50EC0D80F54D
:01027100226A
:020115008F1247
:1001170012023B7FA01201451201C8AF121201451E
:100127001201C812023B7FA11201451201C8120138
:0D013700748F13E4FF1200E4120272AF1384
:010144002298
:10019F008F128D1312023B7FA01201451201C8AFBF
:1001AF00121201451201C8AF131201451201C812F4
:0901BF0002727F0A7E0002025A5E
:04023B00D2A1D2A0DA
:0B023F0075140300AF141514EF70F8E5
:02024A00C2A14F
:0B024C0075140300AF141514EF70F8D8
:03025700C2A02220
:04027200C2A1D2A0B3
:0B02760075150300AF151515EF70F8AB
:03028100D2A122E5
:0900E400EF6004C2A18002D2A168
:0B00ED0075140300AF141514EF70F839
:0200F800D2A094
:0B00FA0075140300AF141514EF70F82C
:04010500C2A0D2A121
:0B01090075140300AF141514EF70F81C
:0101140022C8
:0201C800D2A1C2
:0B01CA0075140300AF141514EF70F85B
:0201D500D2A0B6
:0B01D70075140300AF141514EF70F84E
:0E01E20030A107C2A0120272C322C2A0D32213
:0C014500E4FEEF30E704D2A18002C2A16A
:0B01510075140300AD141514ED70F8D8
:06015C00D2A0EF25E0FF38
:0B01620075140300AD141514ED70F8C7
:06016D00C2A00EBE08D482
:010173002269
:04017400E4FED2A033
:0B01780075140300AD141514ED70F8B1
:0C018300EF25E0FF30A103430701C2A0FC
:0B018F0075140300AD141514ED70F89A
:04019A000EBE08D8B5
:01019E00223E
:10001A00020284E493A3F8E493A34003F68001F276
:10002A0008DFF48029E493A3F85407240CC8C333E7
:10003A00C4540F4420C8834004F456800146F6DFB6
:10004A00E4800B01020408102040809002B4E47E90
:10005A00019360BCA3FF543F30E509541FFEE493AB
:10006A00A360010ECF54C025E060A840B8E493A372
:10007A00FAE493A3F8E493A3C8C582C8CAC583CA9D
:10008A00F0A3C8C582C8CAC583CADFE9DEE780BE55
:0102C100003C
:00000001FF
