:0300000002000EED
:0C000E00787FE4F6D8FD758122020055D1
:0C027000C0F9A4B0999282F88090FFBF02
:1001940008190A0A0A0A0A0A0A0A010F00070828A3
:1001A40023200503041707120000000000000002CA
:0301B40010000038
:0F025400E5A0541F44A0F5A0E4F58053A01F229D
:0C0263007F1D7E0E7D0BDDFEDEFCDFFA51
:01026F00226C
:1001EE00EF1FAA0670011E4A600DE4FDC3ED648088
:0701FE0094EE50EC0D80F5BA
:0102050022D6
:10014800E4F521E52125E02481FF1202327412250D
:1001580021F8A6077F1E7E001201EE0521C3E521C6
:060168006480948740DD75
:01016E00226E
:10024400438901758CF8758A2FD2A9D2AFD28C223A
:10009A00E5A0541F44E0F5A07580FF53A01FE5A01A
:1000AA00541F44C0F5A0AF0F7401A807088002C30B
:1000BA0033D8FCF58053A01FE5A0541F44E0F5A0F7
:1000CA007419250FF8E690027093F58053A01F0566
:0A00DA000FE50FB40803E4F50F2250
:10011800752280E4FD7F8E120206E4F521E5212593
:10012800E02522FF74082521F8E6FD1202060521C4
:10013800C3E5216480948740E47D807F8E020206B7
:1000E400E5125470C4540FF51FE512540FF5207532
:1000F4001E0BE5135470C4540FF51CE513540FF58F
:100104001D751B0BE5145430C4540FF519E5145434
:040114000FF51A22A7
:03000B0002016F80
:10016F00C0E0C083C082C0D075D000C000C007758A
:10017F008CF8758A2F12009AD007D000D0D0D08279
:05018F00D083D0E03236
:10021E001202541202441201181202631201481201
:04022E0000E480F573
:1001B800C297E4FEEF30E004D2A38002C2A3D29734
:0A01C800C297EFC313FF0EBE08EA52
:0101D200220A
:1001D300E4FFFEEFC313FF30A305430780800353FF
:0A01E300077FD297C2970EBE08E90D
:0101ED0022EF
:10020600AE07C293C297D2935306FEAF061201B849
:08021600AF051201B8C29322EA
:10023200C293C297D2934307011201B81201D3C2EB
:010242009328
:010243002298
:10001A0002021EE493A3F8E493A34003F68001F2DC
:10002A0008DFF48029E493A3F85407240CC8C333E7
:10003A00C4540F4420C8834004F456800146F6DFB6
:10004A00E4800B0102040810204080900194E47EB1
:10005A00019360BCA3FF543F30E509541FFEE493AB
:10006A00A360010ECF54C025E060A840B8E493A372
:10007A00FAE493A3F8E493A3C8C582C8CAC583CA9D
:10008A00F0A3C8C582C8CAC583CADFE9DEE780BE55
:0101B7000047
:00000001FF
