:030000000205F501
:0C05F500787FE4F6D8FD75815202063CC8
:100CC400C0F9A4B0999282F88090FFBF9CC6BBA1E2
:010CD4008897
:1008F700084B0A0A0A0A0A0A0A0A012D00014300DC
:1009070007212823200503041707440000000000DF
:1009170000000637000000000000062E000000005F
:1009270000000329000000063D000000000000024F
:0C093700350000013400012C00012800F4
:0F0CE500E5A0541F44A0F5A05380BF53A01F22C9
:0F0CF400E5A0541F44A0F5A043804053A01F2249
:0F0D0300E5A0541F44A0F5A05380EF53A01F227A
:0F0D1200E5A0541F44A0F5A043801053A01F225A
:040BC9007F147E0017
:100BCD00EF1FAA0670011E4A600DE4FDC3ED64809F
:070BDD0094EE50EC0D80F5D1
:010BE40022EE
:100CD500438901758CF8758A2FD2A9D2AFD28C229F
:1007FB00E5A0541F44E0F5A07580FF53A01FE5A0B2
:10080B00541F44C0F5A0AF2D7401A807088002C384
:10081B0033D8FCF58053A01FE5A0541F44E0F5A08E
:10082B00744B252DF8E6900CC493F580E52DB4039D
:10083B0008E534B4010353807F53A01F052DE52D2C
:07084B00B40803E4F52D22BF
:03000B00020A18CE
:100A1800C0E0C083C082C0D075D000C000C00775D8
:100A28008CF8758A2F1207FBE528B401080536E50E
:100A38003670020535D007D000D0D0D082D083D010
:020A4800E0329A
:10036400C2B0D2B3D2B2D2B1D2B4D2B5D2C2D2C454
:1003740020C40F120BC920C43F30C4FD120BC97F27
:10038400002220C20F120BC920C22D30C2FD120B55
:10039400C97F012220B50F120BC920B51B30B5FD52
:1003A400120BC97F022220B40F120BC920B40930EA
:1003B400B4FD120BC97F0322C2B1D2B3D2B2D2B000
:1003C400D2B4D2B5D2C2D2C420C40F120BC920C435
:1003D4003F30C4FD120BC97F042220C20F120BC987
:1003E40020C22D30C2FD120BC97F052220B50F1289
:1003F4000BC920B51B30B5FD120BC97F062220B4F2
:100404000F120BC920B40930B4FD120BC97F0722A7
:10041400C2B2D2B3D2B1D2B0D2B4D2B5D2C2D2C4A3
:1004240020C40F120BC920C43F30C4FD120BC97F76
:10043400082220C20F120BC920C22D30C2FD120B9C
:10044400C97F092220B50F120BC920B51B30B5FD99
:10045400120BC97F0A2220B40F120BC920B4093031
:10046400B4FD120BC97F0B22C2B3D2B2D2B1D2B047
:10047400D2B4D2B5D2C2D2C420C40F120BC920C484
:100484003F30C4FD120BC97F0C2220C20F120BC9CE
:1004940020C22D30C2FD120BC97F0D2220B50F12D0
:1004A4000BC920B51B30B5FD120BC97F0E2220B439
:1004B4000F120BC920B40930B4FD120BC97F0F22EF
:0304C4007F102284
:100C6F00EF1FAA0670011E4A600DE4FDC3ED6480FC
:070C7F00948C50EC0D80F590
:010C8600224B
:100AD400C200D2947F0C7E00120C6FC2947F507EB1
:100AE40000120C6FD2947F0A7E00120C6FA29492B3
:080AF400007F057E00020C6F7B
:020B4B00A907F8
:100B4D00E4FBC294E91392947F057E00120C6FD2E0
:100B5D0094E9C313F90BBB08E97F057E00020C6F06
:100B8D00E4FBC294ECC313FCD29430940343048071
:0D0B9D007F057E00120C6F0BBB08E7AF0454
:010BAA002228
:10068100120AD47FCC120B4B7F44120B4B7FC87ED6
:1006910000120C6F120AD47FCC120B4B7FBE120BCF
:1006A1004B120B8DA907120B8DEF75F040A4FFAE15
:1006B100F0E91313543FFDEF4DFFC3EE64809480C6
:1006C100500EEF24FFFFEE34FFFEEFF4FFEEF4FED9
:1006D100AD07AC06EC120211E4FBFA7980783E1208
:1006E10001068F0E8E0D8D0C8C0BE4FFFE7DC87CF8
:1006F10042AB0EAA0DA90CA80B120106E4FBFAF9F4
:08070100783F12001502024AC4
:1008A7001206818E098F0A75520D75510C7B05D37F
:1008B700E50A9400E509648094804023AE09AF0AF5
:1008C7007C007D0A120320744B2BF8A605AE09AFF6
:1008D7000A7C007D0A1203208E098F0A1B80D074C0
:0F08E7004B2BF8760A1BEBD3940050F3754B0A9A
:0108F60022DF
:100B2400E4F50BE50B25E02481FF120CB274442597
:100B34000BF8A6077F1E7E00120BCD050BC3E50B39
:060B44006480948740DD8F
:010B4A002288
:100A4A00750C80E4FD7F8E120C87E4F50BE50B250F
:100A5A00E0250CFF7421250BF8E6FD120C87050B27
:100A6A00C3E50B6480948740E47D807F8E020C8707
:10097C00E5445470C4540FF551E544540FF55275C9
:10098C00500BE5455470C4540FF54EE545540FF526
:10099C004F754D0BE5465430C4540FF54BE546549A
:0409AC000FF54C22D5
:1009B000E5475430C4540FF551E547540FF55275CF
:1009C000500BE5485410C4540FF54EE548540FF54C
:1009D0004F754D0BE54A54F0C4540FF54BE54A549E
:0409E0000FF54C22A1
:1009E400E5295470C4540FF551E529540FF5527597
:1009F400500BE52A5470C4540FF54EE52A540FF5F4
:100A04004F754D0BE52B5430C4540FF54BE52B5467
:040A14000FF54C226C
:100C9F00E4FF74442FF8E6FE74212FF8A6060FBF69
:020CAF0008F04B
:010CB1002220
:0A0D57007F08784B740AF608DFFCF1
:010D6100226F
:0D0D2100754B0E7F07784C740AF608DFFC56
:010D2E0022A2
:0D0D2F00754B0F7F07784C740AF608DFFC47
:010D3C002294
:0D0D3D00754B107F07784C740AF608DFFC38
:010D4A002286
:100A7A00E54375F00384E5F0700DE5436009244A07
:100A8A00F8760A15438007E543D39400400C1543D2
:0D0A9A00744B2543F8760A7F01227F00226D
:100AA700744B2543F8A6070543E543B40803E4F56B
:100AB70043E5432401FFE433FE7C007D031202CBB0
:0D0AC700ED7009744B2543F8760B054322B2
:100BE500E53BC454F0253CF521E539C454F0253ADC
:0C0BF500F522E537C454F02538F5232222
:100C0100E541C454F02542F529E53FC454F025409F
:0C0C1100F52AE53DC454F0253EF52B22E9
:100C1D00E532C454F02533F524E530C454F02531C4
:0C0C2D00F525E52EC454F0252FF52722F4
:10094400EF7009EDD3940240037F0022BF010EE54E
:1009540037B40209EDD3940340037F0022BF020998
:10096400EDD3940540037F0022BF0409EDD3940521
:0809740040037F00227F0122F5
:10085200BF0209EDD3940140037F0022BF030EE5DE
:1008620030B40109EDD3940240037F0022BF030993
:10087200E5307005ED7002FF22BF0409EDD3940349
:1008820040037F0022BF050EE532B40309EDD39485
:100892000140037F0022BF0509E5327005ED7002B9
:0508A200FF227F01228E
:1004C700E4F50AE50AD39406400302055D8005E5D5
:1004D70009B410071203648F0980F4E509B40F0A01
:1004E700E50A64066004E4F54322E509C394004085
:1004F7002CE509D394095025E50A6406601FE50A2F
:100507007003120D57AD09AF0A120944EF600E745C
:1005170037250AF8A609AF09120AA7050AE50AB49A
:100527000616E509B40F11120B24120C9F120BE5E6
:10053700120A4AE4F543050AE509640E7085E50ADF
:10054700D3940050030204CA120A7AEF700302041C
:06055700CA150A0204CAE5
:01055D00227B
:10055E00E4F50AE50AD3940640030205F48005E5A6
:10056E0009B410071203648F0980F4E509B40F0A69
:10057E00E50A64066004E4F54322E509C3940040ED
:10058E002CE509D394095025E50A6406601FE50A97
:10059E007003120D57AD09AF0A120852EF600E74B8
:1005AE002E250AF8A609AF09120AA7050AE50AB40C
:1005BE000616E509B40F11120B24120C9F120C1D16
:1005CE00120A4AE4F543050AE509640E7085E50A48
:1005DE00D394005003020561120A7AEF70030205EC
:0605EE0061150A0205611F
:0105F40022E4
:10078C00E4FBEBD3940650668003B91007120364A4
:10079C00A90780F6B90F09EB64066004E4F543225F
:1007AC00E9C394004027E9D394095021EB64066017
:1007BC001CEB7003120D57AF03AD01120944EF602F
:1007CC000C743D2BF8A601AF01120AA70BBB060A4D
:1007DC00B90F07120C01E4F5430BE9640E70A3EB9F
:0E07EC00D39400409D120A7AEF60971B809410
:0107FA0022DC
:100B6D00E4FF74292FF8E6FE74442FF8E6B5060469
:0F0B7D000FBF03EEBF0308E52CB4010375280179
:010B8C002246
:100AFC00C3E53694DCE535648094855013120CF410
:100B0C00120D127F647E00120BCD120CE5020D0348
:080B1C00E4F528F535F5362259
:0C0D4B00120B6DE528B40103120AFC2213
:100709001203648F08E508B408101208A7753401AC
:100719007F107E27120BCDE4F534E508B4091412D5
:1007290009B07F107E27120BCD1209E47F107E27B6
:10073900120BCDE508B40A20E52CB4010BE4F52C25
:10074900120D57E4F54B8009752C01120D57754BA5
:10075900017F107E27120BCDE508B40B09120D5746
:10076900120D3D12078CE508B40C09120D57120D34
:10077900211204C7E508B40D09120D57120D2F12E5
:02078900055E0B
:01078B00224B
:100BAB00120CE5120CD5120A4A7F647E00120BCD93
:0E0BBB00120B2412097C120709120D4B80EB5D
:100C3900C297E4FEEF30E004D2A38002C2A3D297A8
:0A0C4900C297EFC313FF0EBE08EAC6
:010C5300227E
:100C5400E4FFFEEFC313FF30A30543078080035373
:0A0C6400077FD297C2970EBE08E981
:010C6E002263
:100C8700AE07C293C297D2935306FEAF06120C3932
:080C9700AF05120C39C29322D3
:100CB200C293C297D293430701120C39120C54C249
:010CC200939E
:010CC300220E
:10000E000202B6E86480F8E933E83360110460F068
:10001E00ED33EC337009E8FCE9FDEAFEEBFF220458
:10002E0060DED3EB9FEA9EE99DE8C2E78CF0C2F753
:10003E0095F0400CE8CCF8E9CDF9EACEFAEBCFFB1F
:10004E0012028185D0F05804700320D5B3E80470F5
:10005E00075002B2D50202C092D5EC0460F7E4CC90
:10006E00C0E0C398F8603B94186008400DD0E0FBE8
:10007E00020298E4FBFAC9FC8028E830E406E4C9E1
:10008E00FBE4CAFCE830E305E4C9CACBFCE854073C
:10009E006010F8C3E913F9EA13FAEB13FBEC13FC47
:1000AE00D8F130F52FC3E49CFCEF9BFFEE9AFEEDEA
:1000BE0099FDD0E0FBEF4E4D4C701222DB03020295
:1000CE00BDEC2CFCEF33FFEE33FEED33FDED30E7F0
:1000DE00EB020298EF2BFFEE3AFEED39FDD0E0FB7E
:1000EE0050130BBB00030202C0ED13FDEE13FEEF27
:0800FE0013FFEC13FC02029851
:10010600EC4D6011E8497017ED33EC3304600DE4F3
:10011600FCFFFEFD22E933E8330470F80202B61252
:10012600028158046009E4CC248150062850090253
:1001360002C02840030202BDC0E0EB4A7044B98009
:1001460006D0E0FB0202ACEF4E701CBD8008EBFF50
:10015600EAFEE9FD80EBE98DF0A4FEE5F00201EF91
:10016600E9CDF9EAFEEBFFEF89F0A4FCE5F0CE89D4
:10017600F0A42EFFE435F0CD89F0A42DFEE435F091
:100186008067EF4E7005BD80D780C3EF8BF0A4ACBF
:10019600F0EE8BF0A42CFCE435F0F8EF8AF0A42CFA
:1001A600E5F038FCE433CB8DF0A42CFCE5F03BF80D
:1001B600EE8AF0A42CFCE5F038F8E433CF89F0A4FD
:1001C6002CFCE5F038CF3400CE89F0A42FFFE5F003
:1001D6003EFEE433C98DF0A42EFEE5F039CD8AF05B
:1001E600A42FFFE5F03EFEE43DFD33D0E0FB5007D3
:1001F6000BBB000F0202C0EC2CFCEF33FFEE33FE0C
:06020600ED33FD02029839
:10020C0075F020800E75F010800575F0087D007E6D
:10021C00007F003392D530D503120356EC334010D7
:10022C00EF33FFEE33FEED33FDEC33FCD5F0ED2276
:0E023C00E5F0247EA2D513CC92E7CDCEFF22B2
:10024A00EDD2E7CD33EC3392D524814006E4FFFEAC
:10025A00FDFC22FCE4CFCECDCC24E0501174FF800B
:10026A00EDC3CC13CCCD13CDCE13CECF13CF0470A8
:07027A00F030D5DE0203564F
:10028100E9D2E7C933E833F892D5EDD2E7CD33ECC3
:0702910033FC5002B2D5223C
:10029800EC30E7100FBF000C0EBE00080DBD0004C7
:1002A8000BEB6014A2D5EB13FCED92E7FD2274FF73
:1002B800FCFDFEFF22E480F8A2D574FF13FC7D80CC
:0302C800E480EFE0
:10060100020BABE493A3F8E493A34003F68001F259
:1006110008DFF48029E493A3F85407240CC8C333FA
:10062100C4540F4420C8834004F456800146F6DFC9
:10063100E4800B01020408102040809008F7E47E5A
:10064100019360BCA3FF543F30E509541FFEE493BE
:10065100A360010ECF54C025E060A840B8E493A385
:10066100FAE493A3F8E493A3C8C582C8CAC583CAB0
:10067100F0A3C8C582C8CAC583CADFE9DEE780BE68
:0109430000B3
:1002CB00BC000BBE0029EF8DF084FFADF022E4CC17
:1002DB00F875F008EF2FFFEE33FEEC33FCEE9DECE0
:1002EB00984005FCEE9DFE0FD5F0E9E4CEFD22ED26
:1002FB00F8F5F0EE8420D21CFEADF075F008EF2F70
:10030B00FFED33FD4007985006D5F0F222C398FD60
:05031B000FD5F0EA22FD
:10032000C2D5EC30E709B2D5E4C39DFDE49CFCEEF8
:1003300030E715B2D5E4C39FFFE49EFE1202CBC3A3
:10034000E49DFDE49CFC80031202CB30D507C3E49E
:060350009FFFE49EFE2267
:0E035600C3E49FFFE49EFEE49DFDE49CFC22B8
:00000001FF
