:030000000203F701
:0C03F700787FE4F6D8FD75811902043E01
:0D06BE00C0F9A4B0999282F88090FFBFC1EE
:0D06960008090A0A0A0A0A0A0A0A010800ED
:0F065A00E5A0541F44A0F5A05380BF53A01F225A
:0F066900E5A0541F44A0F5A043804053A01F22DA
:0F067800E5A0541F44A0F5A05380EF53A01F220C
:0F068700E5A0541F44A0F5A043801053A01F22EC
:10064A00438901758CF8758A2FD2A9D2AFD28C2230
:10048300E5A0541F44E0F5A07580FF53A01FE5A02D
:10049300541F44C0F5A0AF087401A807088002C325
:1004A30033D8FCF58053A01FE5A0541F44E0F5A00A
:1004B30074092508F8E69006BE93F580E508B405AF
:1004C3000353807F53A01F0508E508B40803E4F530
:0204D3000822FD
:03000B000205BF2C
:1005BF00C0E0C083C082C0D075D000C000C0077536
:1005CF008CF8758A2F120483D007D000D0D0D08238
:0505DF00D083D0E032E2
:0C06A4007F167E037DE3DDFEDEFCDFFA46
:0106B0002227
:0C06B1007F037ECF7D1CDDFEDEFCDFFA47
:0106BD00221A
:0404D5008F158D16DC
:1004D9001205E4AF1512053D120597AF1612053D39
:1004E9001205971206381205E4E51504FF12053DB9
:1004F90012059712056C8F17E4FF12050C120638C6
:02050900AF172A
:01050B0022CD
:10031E007D037F901204D5AB077A007D037F901288
:10032E0004D57E007C007D05120273AC06AD07E499
:10033E001201B9E4FBFA798078431201178F148EFB
:10034E00138D128C11E4FFFE7DC87C42AB14AA13F0
:10035E00A912A81112000E1201F2AA06AB07C3EBE6
:10036E0094E8EA6480948340097C037DE812028558
:10037E0080027F0A8F0D7C037DE8AF03AE0212026E
:10038E0085AA04AB05C3EB9464EA64809480400DA7
:10039E007C007D64AF03AE0212028580027F008F67
:1003AE000E7C007D64AF03AE02120285AA04AB057B
:1003BE00C3EB940AEA64809480400D7C007D0AAF02
:1003CE0003AE0212028580027F008F0F7C007D0A31
:1003DE00AF03AE02120285AA04AB05AE02AF037CD8
:0803EE00007D0A1202858D104A
:0103F60022E4
:0C06CB001206691206871206B1020678BA
:100603007D017F901204D57D017F901204D5EFC345
:0D061300943C50030206CB12065A120678E2
:0106200022B7
:1006210012065A12064A12067875090C12031E1296
:0706310006031206A480F588
:0405E400D2A1D2A02E
:0B05E80075180300AF181518EF70F82D
:0205F300C2A1A3
:0B05F50075180300AF181518EF70F820
:03060000C2A02273
:04063800C2A1D2A0E9
:0B063C0075190300AF191519EF70F8D5
:03064700D2A1221B
:09050C00EF6004C2A18002D2A13B
:0B05150075180300AF181518EF70F800
:02052000D2A067
:0B05220075180300AF181518EF70F8F3
:04052D00C2A0D2A1F5
:0B05310075180300AF181518EF70F8E4
:01053C00229C
:02059700D2A1EF
:0B05990075180300AF181518EF70F87C
:0205A400D2A0E3
:0B05A60075180300AF181518EF70F86F
:0E05B10030A107C2A0120638C322C2A0D32276
:0C053D00E4FEEF30E704D2A18002C2A16E
:0B05490075180300AD181518ED70F8D0
:06055400D2A0EF25E0FF3C
:0B055A0075180300AD181518ED70F8BF
:06056500C2A00EBE08D486
:01056B00226D
:04056C00E4FED2A037
:0B05700075180300AD181518ED70F8A9
:0C057B00EF25E0FF30A103430701C2A000
:0B05870075180300AD181518ED70F892
:040592000EBE08D8B9
:010596002242
:10000E00EC4D6011E8497017ED33EC3304600DE4EC
:10001E00FCFFFEFD22E933E8330470F802025E12A3
:10002E00022958046009E4CC2481500628500902A4
:10003E000268284003020265C0E0EB4A7044B980B2
:10004E0006D0E0FB020254EF4E701CBD8008EBFFA1
:10005E00EAFEE9FD80EBE98DF0A4FEE5F00200F783
:10006E00E9CDF9EAFEEBFFEF89F0A4FCE5F0CE89CD
:10007E00F0A42EFFE435F0CD89F0A42DFEE435F08A
:10008E008067EF4E7005BD80D780C3EF8BF0A4ACB8
:10009E00F0EE8BF0A42CFCE435F0F8EF8AF0A42CF3
:1000AE00E5F038FCE433CB8DF0A42CFCE5F03BF806
:1000BE00EE8AF0A42CFCE5F038F8E433CF89F0A4F6
:1000CE002CFCE5F038CF3400CE89F0A42FFFE5F0FC
:1000DE003EFEE433C98DF0A42EFEE5F039CD8AF054
:1000EE00A42FFFE5F03EFEE43DFD33D0E0FB5007CC
:1000FE000BBB000F020268EC2CFCEF33FFEE33FE5D
:06010E00ED33FD0202408A
:10011400020268EC5D046005E85904700302025EA3
:10012400120229580460F6EC4860F2EC7004FDFEFB
:10013400FF22C860DB2481C85009C39860025006BE
:100144000202659850CAF582E9294B4A7005AB82D0
:1001540002025475F0007C1A7880C3EF9BEE9AED8E
:1001640099400DC3EF9BFFEE9AFEED99FDE842F036
:10017400DC23ACF0D0E0FFD0E0FED0E0FDAB822089
:10018400E7101BEB60BAEC2CFCEF33FFEE33FEED13
:1001940033FD020240E803F830E705C0F075F000D3
:1001A400EF2FFFEE33FEED33FD40B830E7C280AAF7
:1001B40075F020800E75F010800575F0087D007EC6
:1001C400007F003392D530D5031202BBEC334010CC
:1001D400EF33FFEE33FEED33FDEC33FCD5F0ED22CF
:0E01E400E5F0247EA2D513CC92E7CDCEFF220B
:1001F200EDD2E7CD33EC3392D524814006E4FFFE05
:10020200FDFC22FCE4CFCECDCC24E0501174FF8063
:10021200EDC3CC13CCCD13CDCE13CECF13CF047000
:07022200F030D5DE0202BB43
:10022900E9D2E7C933E833F892D5EDD2E7CD33EC1B
:0702390033FC5002B2D52294
:10024000EC30E7100FBF000C0EBE00080DBD00041F
:100250000BEB6014A2D5EB13FCED92E7FD2274FFCB
:10026000FCFDFEFF22E480F8A2D574FF13FC7D8024
:03027000E480EF38
:10040300020621E493A3F8E493A34003F68001F2E8
:1004130008DFF48029E493A3F85407240CC8C333FA
:10042300C4540F4420C8834004F456800146F6DFC9
:10043300E4800B0102040810204080900696E47EBD
:10044300019360BCA3FF543F30E509541FFEE493BE
:10045300A360010ECF54C025E060A840B8E493A385
:10046300FAE493A3F8E493A3C8C582C8CAC583CAB0
:10047300F0A3C8C582C8CAC583CADFE9DEE780BE68
:0106A3000056
:10027300EF8DF0A4A8F0CF8CF0A428CE8DF0A42E9F
:02028300FE2259
:10028500C2D5EC30E709B2D5E4C39DFDE49CFCEE94
:1002950030E715B2D5E4C39FFFE49EFE1202C9C341
:1002A500E49DFDE49CFC80031202C930D507C3E43C
:0602B5009FFFE49EFE2203
:0E02BB00C3E49FFFE49EFEE49DFDE49CFC2254
:1002C900BC000BBE0029EF8DF084FFADF022E4CC19
:1002D900F875F008EF2FFFEE33FEEC33FCEE9DECE2
:1002E900984005FCEE9DFE0FD5F0E9E4CEFD22ED28
:1002F900F8F5F0EE8420D21CFEADF075F008EF2F72
:10030900FFED33FD4007985006D5F0F222C398FD62
:050319000FD5F0EA22FF
:00000001FF
