:0300000002000EED
:0C000E00787FE4F6D8FD758110020055E3
:0C015D00C0F9A4B0999282F88090FFBF16
:0D01420008090A0A0A0A0A0A0A0A01080046
:0F013300E5A0541F44A0F5A0E4F58053A01F22BF
:10012300438901758CF8758A2FD2A9D2AFD28C225C
:10009A00E5A0541F44E0F5A07580FF53A01FE5A01A
:1000AA00541F44C0F5A0AF087401A807088002C312
:1000BA0033D8FCF58053A01FE5A0541F44E0F5A0F7
:1000CA0074092508F8E690015D93F58053A01F0591
:0A00DA0008E508B40803E4F5082265
:03000B000200E40C
:1000E400C0E0C083C082C0D075D000C000C0077516
:1000F4008CF8758A2F12009AD007D000D0D0D08205
:05010400D083D0E032C1
:0C0150007F1D7E0E7D36DDFEDEFCDFFA3A
:01015C002280
:10010900E4FC74092CF8A60412015074092CF87641
:0A0119000A0CECB408ECE4FC80E8EA
:0901690012013312012302010905
:10001A00020169E493A3F8E493A34003F68001F292
:10002A0008DFF48029E493A3F85407240CC8C333E7
:10003A00C4540F4420C8834004F456800146F6DFB6
:10004A00E4800B0102040810204080900142E47E03
:10005A00019360BCA3FF543F30E509541FFEE493AB
:10006A00A360010ECF54C025E060A840B8E493A372
:10007A00FAE493A3F8E493A3C8C582C8CAC583CA9D
:10008A00F0A3C8C582C8CAC583CADFE9DEE780BE55
:01014F0000AF
:00000001FF
