:03000000020141B9
:0C014100787FE4F6D8FD7581100201887B
:100273003F065B4F666D7D077F6F777C395E7971D3
:01028300007A
:0D02A30008091010101010101010010800B4
:0802B1007F487ECDDEFEDFFC7C
:0102B9002222
:10000E00C2C4D2B4D2B5D2C2D2B0D2B1D2B2D2B3AD
:10001E0020B30C1202B120B33330B3FD7F00222087
:10002E00B20C1202B120B22430B2FD7F012220B1F7
:10003E000C1202B120B11530B1FD7F022220B00C9E
:10004E001202B120B00630B0FD7F0322C2C2D2B47C
:10005E00D2B5D2C4D2B0D2B1D2B2D2B320B30C1276
:10006E0002B120B33330B3FD7F042220B20C120252
:10007E00B120B22430B2FD7F052220B10C1202B1A4
:10008E0020B11530B1FD7F062220B00C1202B12036
:10009E00B00630B0FD7F0722C2B5D2B4D2C2D2C4F0
:1000AE00D2B0D2B1D2B2D2B320B30C1202B120B3BD
:1000BE003330B3FD7F082220B20C1202B120B224DD
:1000CE0030B2FD7F092220B10C1202B120B11530E1
:1000DE00B1FD7F0A2220B00C1202B120B00630B062
:1000EE00FD7F0B22C2B4D2B5D2C2D2C4D2B0D2B12D
:1000FE00D2B2D2B320B30C1202B120B33330B3FD5F
:10010E007F0C2220B20C1202B120B22430B2FD7F3D
:10011E000D2220B10C1202B120B11530B1FD7F0EAF
:10012E002220B00C1202B120B00630B0FD7F0F229B
:03013E007F10220D
:0F029400E5A0541F44A0F5A0E4F58053A01F225D
:10028400438901758CF8758A2FD2A9D2AFD28C22FA
:1001CD00E5A0541F44E0F5A07580FF53A01FE5A0E6
:1001DD00541F44C0F5A0AF087401A807088002C3DE
:1001ED0033D8FCF58053A01FE5A0541F44E0F5A0C3
:1001FD0074092508F8E690027393F4F58053A01F57
:0B020D000508E508B40803E4F508222A
:03000B0002024EA0
:10024E00C0E0C083C082C0D075D000C000C00775AA
:10025E008CF8758A2F1201CDD007D000D0D0D08265
:05026E00D083D0E03256
:1002180012029412028412000EEF2404FFD39413E6
:1002280050F4EFC3940A4014EF75F00A8485F01077
:10023800EF75F00A84F50F750E0580DA8F10750FCB
:0602480005750E1080D0C8
:10014D00020218E493A3F8E493A34003F68001F2AE
:10015D0008DFF48029E493A3F85407240CC8C333B3
:10016D00C4540F4420C8834004F456800146F6DF82
:10017D00E4800B01020408102040809002A3E47E6D
:10018D00019360BCA3FF543F30E509541FFEE49377
:10019D00A360010ECF54C025E060A840B8E493A33E
:1001AD00FAE493A3F8E493A3C8C582C8CAC583CA69
:1001BD00F0A3C8C582C8CAC583CADFE9DEE780BE21
:0102B000004D
:00000001FF
