:0300000002017189
:0C017100787FE4F6D8FD7581200201B80B
:10051B00EF1FAA0670011E4A600DE4FDC3ED648057
:07052B0094EE50EC0D80F589
:0105320022A6
:02034C008F1C04
:10034E001204C47FA012037C120451AF1C12037C52
:10035E001204511204C47FA112037C120451120321
:0D036E00AB8F1DE4FF12031B120533AF1D02
:01037B00225F
:1003D6008F1D8D1E1204C47FA012037C120451AF20
:1003E6001D12037C120451AF1E12037C120451121B
:0903F60005337F0A7E0002051B9D
:0404C400D2A1D2A04F
:0B04C800751F0300AF1F151FEF70F839
:0204D300C2A1C4
:0B04D500751F0300AF1F151FEF70F82C
:0304E000C2A02295
:04053300C2A1D2A0EF
:0B05370075200300AF201520EF70F8C6
:03054200D2A12221
:09031B00EF6004C2A18002D2A12E
:0B032400751E0300AF1E151EEF70F8E1
:02032F00D2A05A
:0B033100751E0300AF1E151EEF70F8D4
:04033C00C2A0D2A1E8
:0B034000751E0300AF1E151EEF70F8C5
:01034B00228F
:02045100D2A136
:0B045300751F0300AF1F151FEF70F8AE
:02045E00D2A02A
:0B046000751F0300AF1F151FEF70F8A1
:0E046B0030A107C2A0120533C322C2A0D322C3
:0C037C00E4FEEF30E704D2A18002C2A131
:0B038800751F0300AD1F151FED70F87E
:06039300D2A0EF25E0FFFF
:0B039900751F0300AD1F151FED70F86D
:0603A400C2A00EBE08D449
:0103AA002230
:0403AB00E4FED2A0FA
:0B03AF00751E0300AD1E151EED70F85A
:0C03BA00EF25E0FF30A103430701C2A0C3
:0B03C600751E0300AD1E151EED70F843
:0403D1000EBE08D87C
:0103D5002205
:100557003F065B4F666D7D077F6F777C395E7971EC
:0205670000543E
:10050100100B00100010001000100010001000105F
:09051100001001080002090000BD
:1001FD00E5A0541F44E0F5A07580FF53A01FE5A0B6
:10020D00541F44C0F5A0AF087401A807088002C3AD
:10021D0033D8FCF58053A01FE5A0541F44E0F5A092
:10022D00E50825E0240BF8E6FE08E62457F5827470
:10023D00053EF583E493F4F58053A01F0508E5080A
:07024D00B40803E4F50822E8
:03000B000203FFEE
:1003FF00C0E0C083C082C0D075D000C000C006C0AE
:10040F0007758CF8758A2F1201FDD007D006D00022
:09041F00D0D0D082D083D0E032AD
:080593007FD87E6DDEFEDFFC67
:01059B00223D
:10000E00C2B0D2B3D2B2D2B1D2B4D2B5D2C2D2C4AD
:10001E0020C40F12059320C43F30C4FD1205937FF8
:10002E00002220C20F12059320C22D30C2FD1205F0
:10003E00937F012220B50F12059320B51B30B5FD1D
:10004E001205937F022220B40F12059320B40930BB
:10005E00B4FD1205937F0322C2B1D2B3D2B2D2B095
:10006E00D2B4D2B5D2C2D2C420C40F12059320C4CA
:10007E003F30C4FD1205937F042220C20F12059358
:10008E0020C22D30C2FD1205937F052220B50F121E
:10009E00059320B51B30B5FD1205937F062220B4C3
:1000AE000F12059320B40930B4FD1205937F072279
:1000BE00C2B2D2B3D2B1D2B0D2B4D2B5D2C2D2C4FD
:1000CE0020C40F12059320C43F30C4FD1205937F48
:1000DE00082220C20F12059320C22D30C2FD120538
:1000EE00937F092220B50F12059320B51B30B5FD65
:1000FE001205937F0A2220B40F12059320B4093003
:10010E00B4FD1205937F0B22C2B3D2B2D2B1D2B0DC
:10011E00D2B4D2B5D2C2D2C420C40F12059320C419
:10012E003F30C4FD1205937F0C2220C20F1205939F
:10013E0020C22D30C2FD1205937F0D2220B50F1265
:10014E00059320B51B30B5FD1205937F0E2220B40A
:10015E000F12059320B40930B4FD1205937F0F22C0
:03016E007F1022DD
:0F057900E5A0541F44A0F5A0E4F58053A01F2275
:10056900438901758CF8758A2FD2A9D2AFD28C2212
:10054500E4FFEF25E0240BF876000876100FBF08CE
:01055500F1B4
:010556002282
:1004A0007F03EF25E0240BF876000876100FBF08D5
:1004B000F1750B00750C0E750D00750E11750F00A2
:0304C00075100DA7
:0104C3002216
:1004E300750B00750C01750D00750E117F02EF255C
:0D04F300E0240BF876000876100FBF08F12A
:0105000022D8
:10042800AE07E50A640845097008120545E4F509B0
:10043800F50AAF06E50A25E0240BF8760008A607BA
:09044800050AE50A70020509220B
:1002A500AD0CE4FF1203D6AD0E7F011203D6AD10DF
:1002B5007F021203D6AD127F031203D6AD147F045D
:1002C5001203D6AD167F051203D6AD187F061203AD
:0F02D500D6AD1A7F071203D6AD0A7F080203D6F3
:10025400E4FF12034C750B008F0C7F0112034C75E5
:100264000D008F0E7F0212034C750F008F107F0359
:1002740012034C7511008F127F0412034C75130086
:100284008F147F0512034C7515008F167F06120319
:100294004C7517008F187F0712034C7519008F1ABD
:0102A4002237
:1002E4008005E51CB4100712000E8F1C80F4E51C79
:1002F400B40F061202A50204A0E51CD3940950E72A
:10030400E51CC3940040E0E50A4509700312054565
:07031400AF1C12042880D089
:100479008005E51BB4100712000E8F1B80F4E51BE5
:10048900B40F0BE4F509F50A1204E31202E4E51BC3
:06049900B40E0312025430
:01049F00223A
:0B05880012057912056912047980FB4E
:10017D00020588E493A3F8E493A34003F68001F20B
:10018D0008DFF48029E493A3F85407240CC8C33383
:10019D00C4540F4420C8834004F456800146F6DF52
:1001AD00E4800B0102040810204080900501E47EDC
:1001BD00019360BCA3FF543F30E509541FFEE49347
:1001CD00A360010ECF54C025E060A840B8E493A30E
:1001DD00FAE493A3F8E493A3C8C582C8CAC583CA39
:1001ED00F0A3C8C582C8CAC583CADFE9DEE780BEF1
:01051A0000E0
:00000001FF
